:100000000528000000000000172900308b008f0039
:1000100014201a201f20242029202e2034203d20a7
:10002000000064001028132800309300940096000c
:10003000970008000030980099009a0008000030ee
:100040009d009e009f0008000030a000a100a200bb
:1000500008000030a500a600a700080001309000ad
:10006000003091009200080083161f308500003098
:1000700086008312003086000800831681308100dc
:1000800083128101a0308b0008001108920005083e
:100090000339910011184f28911868280800121888
:1000a00008001018582890185c2810196028642837
:1000b00002309000c720080001309000c7200800df
:1000c00008309000ce20080004309000ce200800b8
:1000d000921808001018712890187428101979289f
:1000e0007d281a20c720080004309000c020ce20b0
:1000f000080002309000c720080001309000c7209f
:10010000080017080a3e9700643c031d08000030f1
:100110009700960a16083c3c031d08000030960024
:10012000950a15083c3c031d080000309500940a10
:100130001408183c031d080000309400930a1308ab
:10014000203c031d08000030930008009a0a1a089a
:100150000a3c031d080000309a00990a19083c3c2b
:10016000031d080000309900980a18083c3c031d44
:10017000080000309800080010180800a6200800a9
:100180001a089f0019089e0018089d0008001a0808
:10019000a7001908a6001808a50008001f08a70056
:1001a0001e08a6001d08a50008001019ce289019e9
:1001b000ce28c7288617000000000000861308001c
:1001c0008120170880020319da200800bc2045208e
:1001d000d52008002708220203190800061600008f
:1001e000000000000612a20a22080a3c0319a2011c
:1001f00008002608210203190800861600000000e6
:1002000000008612a10a21083c3c0319a101080044
:10021000250820020319080006170000000000004e
:100220000613a00a20083c3c0319a00108008b011a
:1002300086158f0a07308f050f08003c0319e02050
:100240000f08013c0319e6200f08023c0319ea20bd
:100250000f08033c0319f9200f08043c0319082177
:100260000f08053c0319ea200f08063c0319f92082
:0e0270000f08073c0319082186118b160900a0
:00000001FF
